:100000000C94170A0C943F0A0C943F0A0C943F0A74
:100010000C943F0A0C943F0A0C943F0A0C943F0A3C
:100020000C943F0A0C943F0A0C9490100C94FF100F
:100030000C943F0A0C943F0A0C943F0A0C943F0A1C
:100040000C943F0A0C943F0A0C943F0A0C943F0A0C
:100050000C943F0A0C943F0A0C943F0A0C944610EF
:100060000C943F0A0C943F0A0C943F0A0C943F0AEC
:100070000C943F0A0C943F0A0C943F0A0C943F0ADC
:100080000C943F0A0C943F0A0C943F0A0C943F0ACC
:100090000C943F0A0C943F0A0C943F0A0C943F0ABC
:1000A0000C943F0A0C943F0A0C943F0A202072657E
:1000B0007374617274202000202072657374617201
:1000C0007420200020206A756D70212020002020DF
:1000D000646F206E6F7468696E672020003C206F2B
:1000E00070656E20646F6F7220200020206B6E6F31
:1000F000636B206F6E20646F6F72203E0020206F54
:1001000070656E20646F6F722020003C206F7065F8
:100110006E20646F6F7220200020206B6E6F636B07
:10012000206F6E20646F6F72203E0020206F70651C
:100130006E20646F6F722020003C206F70656E200F
:10014000646F6F7220200020206B6E6F636B206FD6
:100150006E20646F6F72203E0020206578616D69AB
:100160006E652077616C6C732020002020737461B1
:1001700072742067616D6520200061206469666685
:100180006572656E7420656E64696E673F005265C6
:100190007374617274207468652067616D65206690
:1001A0006F720000666F72676F7474656E20746F93
:1001B0006461792E00796F752C20746865792077D9
:1001C00065726500756E666F7274756E6174656CCC
:1001D0007920666F7200696E207468697320726599
:1001E000616C6D20616E642C006D616E6E65727362
:1001F0002069732065766572797468696E6700742A
:1002000068697320706F696E742E20476F6F640089
:10021000796F75207265616C6C792063616E206402
:100220006F2061740049206D65616E2C20746861D7
:100230007420697320616C6C006120646966666576
:1002400072656E7420656E64696E673F00526573F7
:1002500074617274207468652067616D6520666FD3
:10026000720000636F736D69632070726564696307
:10027000616D656E743F007468696E6720746861B3
:1002800074207265736F6C766573206100686561B8
:100290006420776F756C6420626520746865006403
:1002A00072696C6C656420696E746F20796F757209
:1002B000006D616E6E65727320796F7572206D6F5F
:1002C000746865720074686F75676874207468611B
:1002D00074207468650057686F20776F756C6420B0
:1002E00068617665000073656E736F72792064656E
:1002F000707269766174696F6E210062757420692D
:100300007420626561747320746F74616C00796F1E
:1003100075722066697273742063686F6963652CF7
:10032000006F662068756D616E206C6966652E20B1
:100330004E6F7400617761792066726F6D20616E17
:1003400079207369676E73006D6F756E7461696E85
:100350002072616E6765206661720073756D6D69EC
:1003600074206F6620736F6D6500796F75727365A9
:100370006C66206F6E20746865007265616C6D201C
:10038000616E64206E6F772066696E6400636F6EC5
:1003900066696E6573206F662074686520626C61A3
:1003A0006E6B00596F752062726F6B65206F75748C
:1003B000206F6620746865006F72206E65766572C6
:1003C0002100756E66616D696C6961722E204974D9
:1003D000206973206E6F7700776869636820796F92
:1003E000752061726500636976696C697A61746908
:1003F0006F6E20776974680072756E65732066721F
:100400006F6D206100796F752C2061646F726E656D
:1004100064207769746800706F7274616C20656D18
:100420006572676573206265666F726500537564F7
:1004300064656E6C792061206272696C6C69616EB2
:10044000740000686F706520696E206D616E6B6965
:100450006E642E00736F6D65206F66206D79207756
:10046000616E696E6700596F7520686176652072EC
:100470006573746F726564006F6666657220746878
:10048000656D206120776179206F75743F00616E22
:100490006420736F20776879206D7573742049002C
:1004A000776572652061626F7665206B6E6F636B36
:1004B000696E672C00706C61796572732062656C7F
:1004C0006965766564207468657900546865206C98
:1004D00061737420372C3030300061646D6972654F
:1004E00020796F757220646563656E6379210054AD
:1004F00075746F7269616C2D7468696E672C204920
:10050000000074686520726F6F6D2E20497420732F
:100510007065616B733A00616E20696E766973690C
:10052000626C6520706F696E7420696E00636F6E17
:1005300076657267696E672074686572652C2061E4
:10054000740076617279696E672074696D62726594
:100550007300612074686F7573616E6420766F69D3
:10056000636573206F6600796F752068656172201E
:100570006120766F696365206C696B6500427574F4
:1005800020776169742C2073756464656E6C7900E2
:1005900000666F7267697665206D652E006C696B09
:1005A0006520746869732E20506C656173650072F4
:1005B000656C6561736520696E206120706C616394
:1005C0006500646567726565206F6620636F6D65A1
:1005D000646963006C696B65206D65207265717577
:1005E0006972657320736F6D6500646973656D6210
:1005F0006F64696564206E61727261746F72004924
:10060000206A6573742E204576656E206100006453
:100610006966666572656E742E004F682120536F9F
:100620006D657468696E6700696E746F20746F74AD
:10063000616C206D61646E6573732E00796F752037
:100640006265666F726520612064657363656E74B0
:100650000074686F756768747320746F206F6363CC
:100660007570790077697468206F6E6C7920796F86
:1006700075720074686520626C616E6B2067616DD5
:1006800065207368656C6C006C65667420746F74AB
:10069000616C6C7920616C6F6E6520696E007369A6
:1006A0006C656E7420616E6420796F75206172656F
:1006B0000045766572797468696E6720676F657347
:1006C0000000657465726E6974792E2E2E00636F5A
:1006D000737420796F7520616E00596F7572206296
:1006E00065686176696F722077696C6C0072756CF1
:1006F0006573206F66207468652067616D652E00E4
:10070000746F20666967757265206F7574207468F0
:100710006500796F7520616D706C65206F70706F0A
:100720007274756E697479007769746820612064E9
:100730006F6F722E20492067617665007768656E5D
:10074000657665722070726573656E7465640064A9
:100750006563656E7420616E64206B6E6F636B0001
:10076000796F752068616420746F20646F207761F1
:1007700073206265007475746F7269616C2D7468A2
:10078000696E67732E20416C6C006F74686572002F
:10079000617265206A757374206C696B6520616C89
:1007A0006C20746865006469736170706F696E7441
:1007B000696E672120596F75004F682C20686F772C
:1007C000000074686520726F6F6D2E20497420736D
:1007D0007065616B733A00616E20696E766973694A
:1007E000626C6520706F696E7420696E00636F6E55
:1007F00076657267696E672074686572652C206122
:10080000740076617279696E672074696D627265D1
:100810007300612074686F7573616E6420766F6910
:10082000636573206F6600796F752068656172205B
:100830006120766F696365206C696B650042757431
:1008400020776169742C2073756464656E6C79001F
:1008500000666F7267697665206D652E006C696B46
:100860006520746869732E20506C65617365007231
:10087000656C6561736520696E206120706C6163D1
:100880006500646567726565206F6620636F6D65DE
:10089000646963006C696B65206D652072657175B4
:1008A0006972657320736F6D6500646973656D624D
:1008B0006F64696564206E61727261746F72004961
:1008C000206A6573742E204576656E206100006491
:1008D0006966666572656E742E004F682120536FDD
:1008E0006D657468696E670061706172742E007462
:1008F0006F2064697374696E6775697368207468C2
:10090000656D006973207669727475616C6C79200D
:100910006E6F2077617900746869732061206E655D
:1009200077206F6E653F20546865726500626C6168
:100930006E6B20726F6F6D732C206F722069730065
:10094000616E20656E646C657373206C6F6F7020D0
:100950006F6600666972737420626C616E6B2072E0
:100960006F6F6D20696E0041726520796F7520622E
:1009700061636B20696E2074686500596F7520672C
:100980006574206E6F20726573706F6E73652E00D4
:1009900077617320676F696E6720746F206861707C
:1009A00070656E3F00576861742064696420796FD8
:1009B000752065787065637400616E6420616E6F88
:1009C0007468657220646F6F722E00616E6F746858
:1009D000657220776869746520726F6F6D2E2E2E98
:1009E00000646F6F72206F6E6C7920746F2066697F
:1009F0006E642E2E2E00596F752070757368206FEF
:100A000070656E2074686500596F75206765742085
:100A10006E6F20726573706F6E73652E00646973FC
:100A2000637265657420646F6F722E0072756E6EEE
:100A3000696E6720646F776E2E2E2E206100616EC6
:100A400020617869732C20616E6420616761696E32
:100A50000077616C6C2C2073706C697474696E67BC
:100A600020616C6F6E67007468652063656E7465E5
:100A700072206F66206F6E65007468696E206C6905
:100A80006E652072756E6E696E6720757000746891
:100A9000617420796F75206D616B65206F757420AE
:100AA00061006361726566756C206578616D696E61
:100AB0006174696F6E00766F69642E2049742069D5
:100AC00073206F6E6C792075706F6E006472656E46
:100AD0006368656420696E20776869746500596F82
:100AE00075722073656E736573206172650069733A
:100AF000206A757374206120726F6F6D2E00656DB2
:100B00006272796F6E696320656E636C6176652EC3
:100B1000204974007468617420796F75206F636375
:100B200075707920616E00616E79776865726520F5
:100B3000746F207375676765737400617265206EEA
:100B40006F207369676E73206F66206C696665003D
:100B500077686974652C20616E64207965742074EF
:100B6000686572650077616C6C73206172652065E1
:100B700067677368656C6C00666F75722065717568
:100B80006964697374616E74006120626C616E6B7C
:100B900020726F6F6D2E2054686500596F75206646
:100BA000696E6420796F757273656C6620696E007A
:100BB0002F7777772E74696E7963686F6963652E16
:100BC0006E65742F29004D61646520776974682013
:100BD00054696E7963686F6963650043686F6F730A
:100BE0006520776973656C792E2E2E00706F737394
:100BF00069626C6520656E64696E67732E00546867
:100C0000657265206172652074776F000062793AC1
:100C10002054796C65722057726967687400547546
:100C2000746F7269616C2D7468696E6700AC00B88E
:100C300000C400CE00EB00DD00FD0019010B012B0C
:100C4000014701390159016B0125021002FF01E939
:100C500001D601C401B501A401A3018E017A01A34B
:100C6000038D037A036A035B034803340321030EF5
:100C700003FB02E602E502D602C502B1029F028D25
:100C8000027702630262024D0239021A060F060E53
:100C900006FF05EA05D405C205AF059D059105903F
:100CA000057D056705520542052D0517050205015D
:100CB00005EF04DA04CB04B504A0048E04780466BE
:100CC000045404430442042D0417040504F803E605
:100CD00003D803C203B803DA08CF08CE08BF08AAB6
:100CE00008940882086F085D08510850083D0827DD
:100CF0000812080208ED07D707C207C107B907A6FF
:100D00000790078A07750760074F073C07280712F7
:100D1000070007ED06DA06CE06C206C106B1069E3A
:100D20000688067306640651063C062806670953C2
:100D30000940092D0917090309EF08E8087B09F69E
:100D400009E109CB09B909A5099009080ADE0ACC0D
:100D50000AB60AA20A8E0A790A670A510A3E0A2CC2
:100D60000A1D0A9B0B890B780B650B500B3B0B275D
:100D70000B140BFE0AEE0A1E0C0D0C0C0CFE0BECF9
:100D80000BDB0BC60BB00B0100010009000A0008C9
:100D9000000700060005000600040003000400022E
:100DA00000010000000000003E5B4F5B3E3E6B4FC9
:100DB0006B3E1C3E7C3E1C183C7E3C181C577D57ED
:100DC0001C1C5E7F5E1C00183C1800FFE7C3E7FF99
:100DD0000018241800FFE7DBE7FF30483A060E262C
:100DE00029792926407F050507407F05253F5A3C84
:100DF000E73C5A7F3E1C1C08081C1C3E7F14227FC7
:100E000022145F5F005F5F06097F017F006689959E
:100E10006A606060606094A2FFA29408047E040887
:100E200010207E201008082A1C08081C2A08081E0A
:100E3000101010100C1E0C1E0C30383E3830060EF0
:100E40003E0E06000000000000005F0000000700EA
:100E50000700147F147F14242A7F2A1223130864A6
:100E60006236495620500008070300001C2241004A
:100E70000041221C002A1C7F1C2A08083E0808008A
:100E8000807030000808080808000060600020102A
:100E90000804023E5149453E00427F4000724949E4
:100EA00049462141494D331814127F1027454545C5
:100EB000393C4A49493141211109073649494936E6
:100EC000464949291E00001400000040340000007B
:100ED00008142241141414141400412214080201AD
:100EE0005909063E415D594E7C1211127C7F4949D9
:100EF00049363E414141227F4141413E7F49494976
:100F0000417F090909013E414151737F0808087F6B
:100F100000417F41002040413F017F081422417F72
:100F2000404040407F021C027F7F0408107F3E410A
:100F300041413E7F090909063E4151215E7F091961
:100F40002946264949493203017F01033F40404079
:100F50003F1F2040201F3F4038403F631408146368
:100F600003047804036159494D43007F4141410224
:100F700004081020004141417F0402010204404066
:100F8000404040000307080020545478407F284424
:100F900044383844444428384444287F385454540E
:100FA0001800087E090218A4A49C787F080404781D
:100FB00000447D40002040403D007F102844000058
:100FC000417F40007C047804787C0804047838442D
:100FD000444438FC1824241818242418FC7C0804E1
:100FE0000408485454542404043F44243C40402002
:100FF0007C1C2040201C3C4030403C4428102844AD
:101000004C9090907C4464544C440008364100005D
:1010100000770000004136080002010204023C266D
:1010200023263C1EA1A161123A4040207A38545434
:1010300055592155557941215454784121555478B9
:101040004020545579400C1E52721239555555594D
:10105000395454545939555454580000457C410072
:1010600002457D420001457C40F0292429F0F0280A
:101070002528F07C545545002054547C547C0A09A2
:101080007F4932494949323248484832324A484811
:10109000303A4141217A3A42402078009DA0A07D1B
:1010A00039444444393D4040403D3C24FF242448D9
:1010B0007E4943662B2FFC2F2BFF0929F620C08881
:1010C0007E090320545479410000447D4130484852
:1010D0004A32384040227A007A0A0A727D0D19316C
:1010E0007D2629292F28262929292630484D4020C8
:1010F000380808080808080808382F10C8ACBA2FA4
:10110000102834FA00007B000008142A142222144C
:101110002A14089500220095AA005500AAAA55AAEB
:1011200055AA000000FF00101010FF00141414FF57
:10113000001010FF00FF1010F010F0141414FC0049
:101140001414F700FF0000FF00FF1414F404FC1453
:101150001417101F10101F101F1414141F0010104C
:1011600010F0000000001F101010101F10101010C1
:10117000F010000000FF101010101010101010FFE1
:1011800010000000FF140000FF00FF00001F1017F8
:101190000000FC04F414141710171414F404F400E1
:1011A00000FF00F714141414141414F700F71414A7
:1011B00014171410101F101F141414F4141010F02E
:1011C00010F000001F101F0000001F14000000FCA2
:1011D000140000F010F01010FF10FF141414FF148E
:1011E0001010101F00000000F010FFFFFFFFFFF0C5
:1011F000F0F0F0F0FFFFFF0000000000FFFF0F0F16
:101200000F0F0F38444438447C2A2A3E147E0202D1
:101210000606027E027E0263554941633844443C1F
:1012200004407E201E2006027E020299A5E7A599B1
:101230001C2A492A1C4C7201724C304A4D4D3030E8
:1012400048784830BC625A463D3E494949007E01D3
:1012500001017E2A2A2A2A2A44445F444440514AF2
:10126000444040444A51400000FF0103E080FF0039
:101270000008086B6B083612362436060F090F0675
:10128000000018180000001010003040FF0101009D
:101290001F01011E00191D1712003C3C3C3C0000C0
:1012A000000000470C450C410C3F0C3B0C390C3541
:1012B0000C330C310C2F0C2D0C770D630D4D0D4B99
:1012C0000D3F0D3D0D2D0DD70C8B0C5F0C490C08FF
:1012D0000B000202020000090400000102020000EB
:1012E000052400100105240101010424020605243F
:1012F0000600010705810310004009040100020AED
:1013000000000007050202400000070583024000BC
:10131000000403090412010002EF020140032A4005
:1013200080000101020301556E6B6E6F776E004104
:10133000726475696E6F204C656F6E6172646F20A8
:1013400045544800D5F08D14A1C881CFD9F1AF2004
:10135000001402130212021502070208020A020A0E
:10136000010B020B010902090104010C0106010035
:10137000A10D9F0D9B0D990D950D930D8F0D8D0D4D
:101380008B0D890D870D0100010002000100020094
:1013900001000200010001000100010008000A0034
:1013A0000B0001000600010008002B0026001600BB
:1013B0000B0000000000240027002A002D00300050
:1013C00000000000250028002B002E00310004043E
:1013D00004040403040502020202040302020202DE
:1013E00006060606060604040202020404040802B5
:1013F000011040804010204080408008020401809D
:101400004020100201108010204040200000000207
:1014100000090F0000030401000C000000000000A0
:101420000000000000000000000000003113112443
:101430001FBECFEFDAE0DEBFCDBF11E0A0E0B1E02C
:10144000E2EEFCE202C005900D92A834B107D9F794
:1014500025E0A8E4B1E001C01D92AD3FB207E1F77D
:101460001AE0C7E1DAE004C02197FE010E94641689
:10147000C631D107C9F70E9462130C946F160C9401
:101480000000EF92FF920F931F93CF93DF93480FCB
:10149000592F511D260F372F311D01E010E0841701
:1014A00095075CF5DB01F9012134310514F0E0E426
:1014B000F0E0AE17BF07FCF480389105D4F4EA2FB2
:1014C000E695E695E695C0E8EC9FF0011124E80F5B
:1014D000F91FEF56FE4F7D01D7E0ED22FF24E80112
:1014E00002C0CC0FDD1FEA94E2F77E01C081CE2955
:1014F000C0831196D8CF0196D2CFDF91CF911F91A3
:101500000F91FF90EF9008959091E705982329F4AB
:101510009091E605982381E009F480E00895FC01AC
:1015200080919001882311F13FB7F89482E0809375
:10153000E9002091F200822F90E01816190614F4A9
:1015400081E090E0882339F0289844E640938F01A9
:101550004091F1004083222339F02091F2002111C3
:1015600003C02BE62093E8003FBF08958FEF9FEF65
:1015700008952FB7F89483E08093E9009091E800F4
:10158000892F807295FF04C09091F20080E4891B3E
:101590002FBF08958091870181110DC082E0809353
:1015A000830184E08093840110928601109285016A
:1015B00081E08093870183E891E00895282F30E04F
:1015C000F901E45FFB4E9491F901E351FC4E8491E3
:1015D00022533C4EF9012491222309F430C099236F
:1015E000E9F091509F30D0F4E92FF0E0E650F54F4C
:1015F0000C946416280B2C0B090B200B240B0E0BE0
:101600000E0B0E0B2F0B350B390B3D0B430B0E0B3B
:10161000470B909180009F7790938000E22FF0E03D
:10162000EE0FFF1FE054FC4EA591B4919FB7F894C4
:10163000EC91611132C080958E238C939FBF0895E9
:10164000909180009F7DE8CF90918000977FE4CFBC
:1016500094B59F7794BDE2CF94B59F7DFBCF9091D9
:1016600090009F7790939000D9CF909190009F7DAC
:10167000F9CF90919000977FF5CF9091C0009F7720
:101680009093C000CBCF9091C0009F7DF9CF9091F7
:10169000C200977F9093C200C1CF8E2BCECFCF9345
:1016A000DF9390E0FC01E351FC4E249182539C4E69
:1016B000FC0184918823C9F090E0880F991FFC01F8
:1016C000EE54FC4EA591B491FC01E054FC4EC59142
:1016D000D49161110DC09FB7F8948C91209582230D
:1016E0008C938881282328839FBFDF91CF91089511
:1016F000623051F49FB7F8943C91822F80958323F8
:101700008C93E8812E2BEFCF8FB7F894EC912E2B92
:101710002C938FBFEACF3FB7F89480917F019091CF
:101720008001A0918101B091820126B5A89B05C0DE
:101730002F3F19F00196A11DB11D3FBFBA2FA92F50
:10174000982F8827BC01CD01620F711D811D911D4D
:1017500042E0660F771F881F991F4A95D1F70895B9
:101760008F929F92AF92BF92CF92DF92EF92FF92B1
:101770004B015C010E948B0B6B017C010E948B0B67
:101780006C197D098E099F09683E7340810591059A
:10179000A8F321E0821A9108A108B10888EEC80ECA
:1017A00083E0D81EE11CF11C81149104A104B10452
:1017B00029F7FF90EF90DF90CF90BF90AF909F9070
:1017C0008F900895409168015091690120916601C0
:1017D0003091670142175307B4F49091E800957077
:1017E000E1F39091E80092FD19C08093F10080919F
:1017F00068019091690101968F739927892B19F4DB
:101800008EEF8093E80080916801909169010196C4
:10181000909369018093680181E0089580E00895C4
:10182000EF92FF920F931F93CF93DF93F82E192F10
:10183000E62E042F81E0860F880F0E94E20B83E0E2
:101840000E94E20BCF2DD12FEC0EFD2EF11CCE15F8
:10185000DF05B9F007FF13C0FE0184910E94E20B7F
:10186000182F80E00E94E20B812321968111EFCF97
:10187000DF91CF911F910F91FF90EF900895888194
:10188000EDCF81E0F5CFDF92EF92FF920F931F93A0
:10189000CF93DF93D82E8A01EB017B01E40EF51E76
:1018A000CE15DF0559F0D7FE12C0FE0184910E94CB
:1018B000E20B21968111F4CF0FEF1FEFC801DF91EA
:1018C000CF911F910F91FF90EF90DF900895888145
:1018D000EECF0F931F93CF93DF931F92CDB7DEB759
:1018E00082E0898342E450E06FEC72E180E80E947C
:1018F000430C0E94CA0ADC0112960D911C9101153D
:10190000110589F0D801ED91FC910280F381E02D61
:10191000BE016F5F7F4FC801099597FD04C0F801B4
:1019200000851185ECCF89810F90DF91CF911F91B8
:101930000F910895615030F02091F100FC01208357
:101940000196F8CF289884E680938F010895AF928E
:10195000BF92CF92DF92EF92FF920F931F93CF939C
:10196000DF936C017B018B01040F151FEB015E01FE
:10197000AE18BF08C017D10759F06991D601ED9193
:10198000FC910190F081E02DC6010995892B79F732
:10199000C501DF91CF911F910F91FF90EF90DF90E4
:1019A000CF90BF90AF9008958F929F92AF92BF92C9
:1019B000CF92DF92EF92FF920F931F93CF93DF931B
:1019C0006C017B018A0180910B01882309F45CC0C2
:1019D00080919001882309F457C080916C0180FFA9
:1019E00005C08091E00082608093E000E801B12CA6
:1019F0008AEFA82E93E0892E2AE3922E209711F4E5
:101A0000BB20D9F10E94B90A81110AC0AA94AA2068
:101A1000D9F161E070E080E090E00E94B00BEECF81
:101A20008C171D0611F00CF08C2F9FB7F894809244
:101A3000E9002091E80025FD02C09FBFDFCF282FDD
:101A400030E0C21BD30BF701815020F0419140934D
:101A5000F100FACFE20EF31EBB2021F09092E800D5
:101A6000B12CEBCF8091E80085FDE7CF9092E800A4
:101A7000BB24B394209709F3F3CF5D9884E6809359
:101A80006B01101611063CF081E090E0F6019383A3
:101A9000828310E000E0C801DF91CF911F910F9188
:101AA000FF90EF90DF90CF90BF90AF909F908F907E
:101AB0000895CF93DF931F92CDB7DEB76983DC0122
:101AC000ED91FC910280F381E02D41E050E0BE01F8
:101AD0006F5F7F4F09950F90DF91CF91089583E05D
:101AE0008093E9008091F200882319F08AE38093C3
:101AF000E80008950E94B90A90E00895CF93DF931B
:101B00001F92CDB7DEB7FC018485958597FD08C08F
:101B10002FEF3FEF358724870F90DF91CF91089506
:101B2000CE0101960E948F0A019719F4898190E0F5
:101B3000F3CF8FEF9FEFF0CF0F931F93CF93DF93F0
:101B40001F92CDB7DEB78C01FC018485958597FF88
:101B50000BC0CE0101960E948F0A019771F4898112
:101B600090E0F80195878487F801848595850F902A
:101B7000DF91CF911F910F9108958FEF9FEFF1CFDC
:101B8000FC018485958597FD0BC09FB7F89482E092
:101B90008093E9008091F2009FBF90E00196089544
:101BA0009FB7F89482E08093E9008091F2009FBF94
:101BB00090E008954FB18CB123B190E0809590955D
:101BC00033E0959587953A95E1F7887030E0209558
:101BD000309535952795359527952470822B942F30
:101BE0009095907F892B08952F923F924F925F920C
:101BF0007F928F929F92AF92BF92CF92DF92EF929D
:101C0000FF920F931F93CF93DF9300D000D0CDB7F7
:101C1000DEB7DC016A3069F55A968C915A9798E0E4
:101C2000899F9001112456968D919C915797820F10
:101C3000931F57969C938E93569755961C921E927F
:101C4000549781E090E00F900F900F900F90DF91EC
:101C5000CF911F910F91FF90EF90DF90CF90BF90A9
:101C6000AF909F908F907F905F904F903F902F907C
:101C700008956D3031F354964D915C9155974038ED
:101C800051050CF097C05696ED90FC905797E0E404
:101C9000EE16F1040CF08EC05A962C915A9735E04E
:101CA000CA01239F800D911D1124181619060CF0EE
:101CB00081C0422E512CC20173E0880F991F7A9582
:101CC000E1F78E0D9F1D181619060CF073C059967A
:101CD0009C90599758968C905897639FB001112407
:101CE0001C821B82CB018D55924F9A8389839B81E5
:101CF000E0E0953039F0E981FA818B819C81E80F31
:101D0000F91FE491870138E02E2E312C782CE0FF6A
:101D1000792C711002C09814D9F1BA01862F841B56
:101D20008217B0F5D12CC12C8C2DC21670F56038FD
:101D3000710520F55601A00EB11E90E4A916B1045C
:101D4000E8F4800F869586958695E0E88E9FC00121
:101D50001124860F971FF7E0AF22BB24E1E0F0E0EB
:101D600002C0EE0FFF1FAA94E2F75F01FC01EF56DD
:101D7000FE4F8081772031F0A82AA082FFEFCF1A92
:101D8000DF0AD2CFA094A822F8CF6F5F7F4FC6CFD3
:101D900035942794E22D3150040D151D3111B4CF27
:101DA0008B819C8101969C838B83440D551D0697E6
:101DB00009F09DCF5A962C915A97422F50E0549695
:101DC0008D919C915597E6E02E9F800D911D1124D9
:101DD00055969C938E9354975B962C915B972223F8
:101DE00009F42FCF6AEF64039001659F300D112431
:101DF00020583F4F281739070CF023CFCD01ED9124
:101E0000FC910190F081E02D6AE009951ACF0895C8
:101E100090E080E008950E946A16FB010190002086
:101E2000E9F73197AF01461B570BDC01ED91FC91AF
:101E30000280F381E02D09948F929F92AF92BF921E
:101E40000F931F93CF93DF93CDB7DEB7A1970FB654
:101E5000F894DEBF0FBECDBF19A2423008F44AE0AD
:101E60008E010F5D1F4F842E912CB12CA12CA5014A
:101E700094010E942E16E62FB901CA01EA3004F53A
:101E8000E05DD801EE938D01232B242B252B79F7D0
:101E900090E080E0109729F0BD0181E995E00E9473
:101EA0000D0FA1960FB6F894DEBF0FBECDBFDF9128
:101EB000CF911F910F91BF90AF909F908F900895F9
:101EC000E95CDFCFAF92BF92CF92DF92EF92FF92A9
:101ED0000F931F93CF93DF9381E991E020E0B22F1E
:101EE000B111BFEFFC010024B193B193B193B19351
:101EF0000394D1F71092F8051092F7051092F605A9
:101F00001092F5058091770190917801880F991FC3
:101F1000FC01E456FC4EC591D49156E0C52ED12C5F
:101F2000C630D10508F46E01FC01E754FD4EA590C2
:101F3000B490F12CE12C10E000E00C151D051CF50F
:101F4000E0917901E00FF12FF11DEE0FFF1FEA0D77
:101F5000FB1D6591749188E491E00E942716109210
:101F6000F6051092F505F092F805E092F70568E4A1
:101F700071E081EE95E00E940D0F0F5F1F4F89E029
:101F8000E80EF11CDACF21E040E866E370E090E073
:101F900080E00E94410A8091770190917801880F3A
:101FA000991FFC01EA57FC4E25913491232BA1F196
:101FB000FC01ED55FD4E85919491E0917501F091F4
:101FC0007601EE0FFF1FE80FF91F6591749188E409
:101FD00091E00E94271688E491E0FC010190002026
:101FE000E9F7CF0189549140982F990F990F891BD8
:101FF000805C082E000C990B9093F6058093F505F4
:1020000088E390E09093F8058093F70568E471E029
:1020100081EE95E00E940D0FC730D105D8F084E421
:1020200091E0BE010E9450169B016091790145E349
:1020300050E0421B530B649FC001659F900D11241B
:10204000BE01665071090E94501642E08EE790E092
:102050000E94410A809191018EBDE2E9F1E08191F7
:102060000DB407FEFDCF8EBD85E0E139F807B9F765
:102070000DB407FEFDCFDF91CF911F910F91FF901F
:10208000EF90DF90CF90BF90AF9008951F920F9286
:102090000FB60F9211242F933F938F939F93AF937B
:1020A000BF9380917B0190917C01A0917D01B091C3
:1020B0007E0130917A0123E0230F2D3758F50196E8
:1020C000A11DB11D20937A0180937B0190937C0127
:1020D000A0937D01B0937E0180917F01909180015A
:1020E000A0918101B09182010196A11DB11D809343
:1020F0007F0190938001A0938101B0938201BF91F1
:10210000AF919F918F913F912F910F900FBE0F90A4
:102110001F90189526E8230F0296A11DB11DD2CF5E
:102120001F920F920FB60F9211248F939F9380915D
:10213000E1009091E100937F9093E10083FF0FC055
:102140001092E90091E09093EB001092EC0092E382
:102150009093ED001092900198E09093F00082FF30
:1021600022C093E09093E9009091F200992319F036
:102170009AE39093E80090916B01992341F090913C
:102180006B01915090936B01911101C05D9A9091F8
:102190008F01992341F090918F01915090938F017D
:1021A000911101C0289A84FF18C08091E2008E7EB0
:1021B00081608093E2008091E1008F7E8093E10056
:1021C00080916C018E7E806180936C019F918F91D4
:1021D0000F900FBE0F901F90189580FFF7CF809142
:1021E000E2008E7E80618093E2008091E1008E7E2D
:1021F0008093E10080916C018E7E8160E5CF1F921B
:102200000F920FB60F921124CF92DF92EF92FF92AE
:102210000F931F932F933F934F935F936F937F93EE
:102220008F939F93AF93BF93EF93FF93CF93DF93DE
:10223000CDB7DEB76C97DEBFCDBF1092E9008091BD
:10224000E80083FF25C068E0CE0145960E949A0C05
:1022500082EF8093E8008D8987FF39C09091E80074
:1022600090FFFCCF982F907609F034C19E894F895A
:10227000588D2F89F88C911131C0803861F580918B
:102280006D018093F1001092F1008EEF8093E800D1
:102290006C960FB6F894DEBF0FBECDBFDF91CF9125
:1022A000FF91EF91BF91AF919F918F917F916F912E
:1022B0005F914F913F912F911F910F91FF90EF9060
:1022C000DF90CF900F900FBE0F901F9018959EEF4C
:1022D0009093E800C7CF1092F100D5CF913059F418
:1022E0008111D3CF4130510581F680916D018D7FF1
:1022F00080936D01CACF933049F48111C6CF41302C
:10230000510519F680916D018260F2CF953041F44C
:102310008091E80080FFFCCF20682093E300B5CFD8
:10232000963009F0A9C00B8D1C8D22E01092E900B7
:102330001092690110926801F2122EC0109267018A
:10234000109266010E94690C1F8299E09983FA82BB
:1023500091E09E8390EA98879AEF9987209168018F
:1023600030916901275F3F4F3C832B838D8310920F
:10237000E9001092690110926801109367010093BF
:10238000660149E050E0BE016F5F7F4F80E00E9430
:10239000430C0E94690C79CF10936701009366018A
:1023A0000E94CA0ADC0112960D911C9101151105BB
:1023B00009F451C1D801ED91FC910480F581E02D23
:1023C000BE016B5E7F4FC8010995009709F03EC1C1
:1023D000F80100851185EACFF3E0FF120EC08F8966
:1023E000882309F440C0823061F440E864E18FE260
:1023F00093E10E94100C811148CF81E28093EB00A1
:1024000047CF813029F440E867E087E293E1F1CFDC
:10241000833099F70E94CA0ADC011296ED90FC9075
:102420008E010F5F1F4F6801E114F10479F0D701AD
:10243000ED91FC910680F781E02DB801C701099567
:10244000080F111DF701E084F184EECFD8011C9232
:10245000F60101900020E9F73197BF016C197D0961
:1024600040E0C601C6CF61E173E1FB01449150E059
:1024700080E80E94430C09CF973009F4BECF983012
:1024800021F481E08093F10000CF993009F0FDCE76
:10249000837009F0B2CFEDE0F1E081E031E096E346
:1024A0002191222371F08093E9003093EB00DF014A
:1024B00011972C912093EC009093ED008F5F873063
:1024C00079F78EE78093EA001092EA008F89809373
:1024D0009001DBCE8B8D9C8D1092E90010926901EA
:1024E000109268019093670180936601898D811134
:1024F00092C08E899D89913A49F4813209F07DCF4D
:1025000047E050E064E071E080E0B3CF913209F041
:1025100074CF833269F48F89988DB0E0A0E0809306
:10252000000190930101A0930201B0930301ADCE8D
:10253000803269F48091E80082FFFCCF67E084E09C
:1025400091E00E949A0C8BEF8093E8009ECE82323D
:1025500009F09BCE8F8980930B01EEEFFFE7859109
:1025600094918B3F9C4D51F1E0E0F8E080910401A3
:1025700090910501A0910601B0910701803B944024
:10258000A105B105F1F480910B0180FD1AC0EE3F69
:102590008AE0F80789F587E797E791838083809140
:1025A000600080936A0188E19BE00FB6F894A895DB
:1025B000809360000FBE9093600067CEEEEFFAE06C
:1025C000D5CF808191818737974709F05ECEA89556
:1025D0008091600088618093600080916A0180939F
:1025E0006000EE3F2AE0F20789F08091FE0A9091A8
:1025F000FF0A9183808349CE808191818737980734
:1026000051F29093FF0A8093FE0AC5CF1092FF0A01
:102610001092FE0A3ACE0E94CA0ADC0112960D916F
:102620001C910115110509F4E8CED801ED91FC913A
:102630000190F081E02DBE016B5E7F4FC8010995CE
:10264000811123CEF80100851185EBCF18161906EC
:102650000CF41BCED2CEF1E0FF12BECE65E173E1E9
:1026600004CFE1E9F5E01382128288EE93E0A0E066
:10267000B0E084839583A683B78387E191E091835B
:1026800080838FEF9FEF95878487E1EEF5E01382DB
:1026900012821582168280E1818710861782168643
:1026A0001786108A118A128A89E291E091838083C9
:1026B000158A148A178A168A81E0808F118E828F7C
:1026C000138E0895789484B5826084BD84B581604A
:1026D00084BD85B5826085BD85B5816085BD8091ED
:1026E0006E00816080936E00109281008091810065
:1026F000826080938100809181008160809381005D
:102700008091800081608093800080919100826040
:1027100080939100809191008160809391008091DD
:1027200090008160809390008091C10084608093CC
:10273000C1008091C10082608093C1008091C1007E
:1027400081608093C1008091C30081608093C30049
:102750008091C00082608093C0008091C20081603F
:102760008093C20080917A00846080937A00809187
:102770007A00826080937A0080917A0081608093F1
:102780007A0080917A00806880937A00109290019C
:1027900010926D0110926C018091D700816080933E
:1027A000D70080EA8093D80089B5806189BD89B55A
:1027B000826089BD09B400FEFDCF61E070E080E079
:1027C00090E00E94B00B8091D8008F7C8061809354
:1027D000D8008091E000807F8093E0008091E1004C
:1027E0008E7E8093E1008DE08093E200559A209ADE
:1027F0008FEF9FEF90939E0580939D05CFB7F89440
:1028000080916E01811127C0EFEDF3E18491EEEF2D
:10281000F3E19491E82FF0E0EE0FFF1FEE54FC4E31
:10282000A591B491EC91E92321F461E081E10E944A
:10283000DE0A61E081E10E944F0B8CB580618CBDA6
:102840008CB580648CBD61E08FE00E944F0B61E02D
:1028500080E10E944F0B80916E018F5F80936E012B
:10286000CFBFC1E5D3E1BE01FE0184916F5F7F4F11
:102870002296FB016491882319F00E944F0BF3CF3D
:1028800061E086E00E94DE0A61E070E080E090E0B6
:102890000E94B00B60E086E00E94DE0A6AE070E011
:1028A00080E090E00E94B00B61E086E00E94DE0ACA
:1028B000EAEDF3E1E491F0E0EE0FFF1FE054FC4E8F
:1028C000859194919093740180937301E9EFF3E102
:1028D000E491E0937201E2EDF3E1E491F0E0EE0FB8
:1028E000FF1FE054FC4E8591949190937101809369
:1028F0007001E1EFF3E1E491E0936F018CB58C7F1F
:102900008CBD8DB581608DBDE0917301F091740136
:10291000908180917201982B9083A0917001B09169
:1029200071012C9190916F01909592239C939081CD
:10293000809589238083E4E4F3E181E593E12491A8
:102940002EBD00000DB407FEFDCF2EB531968E17BB
:102950009F07A9F7E0917001F0917101808190913A
:102960006F01892B8083E0917301F0917401908154
:1029700080917201809589238083809164008160B9
:1029800080936400809164008260809364008091F1
:102990006400806880936400809164008064809308
:1029A00064008091650081608093650084E6809377
:1029B000EA050E94620FC0E0D0E011E02FB7F89462
:1029C00080917B0190917C01A0917D01B0917E016D
:1029D0002FBF2091F305222391F02091EB05F82FD2
:1029E000F21BF093F4052091E8053091E9052F5F83
:1029F0003F4F3093E9052093E8051092F30540918D
:102A0000EF055091F0056091F1057091F205841782
:102A10009507A607B70798F4481B423050F083B7D4
:102A2000817F83BF83B7816083BF889583B78E7FA3
:102A300083BF209709F4C2CF0E940000BFCF20912E
:102A4000EA05AC01BD01420F511D611D711D40938E
:102A5000EF055093F0056093F1057093F2058093B4
:102A6000EB059093EC05A093ED05B093EE05109364
:102A7000F3058091E6058093E7050E94DA0D8093C7
:102A8000E6050E94DA0D87FF06C00E94DA0D87FD79
:102A90001BC000E021C00E94DA0D84FDF6CF80E269
:102AA0000E94840A8111F1CF80E40E94840A81117E
:102AB000ECCF88E00E94840A8111E7CF84E00E9475
:102AC000840A8111E2CFB5CF80917901882309F37F
:102AD00081508093790101E00E94DA0D84FF17C0D4
:102AE000E0917701F0917801EE0FFF1FE456FC4E64
:102AF0004591549180917901282F30E02A5F3F4F12
:102B00002417350720F48F5F8093790101E080E27C
:102B10000E94840A882371F020917501309176011A
:102B20002115310539F02150310930937601209378
:102B30007501082F80E40E94840A8823D9F0E0916F
:102B40007701F0917801EE0FFF1FEA57FC4E459197
:102B500054914115510571F0209175013091760124
:102B60002F5F3F4F2417350728F4309376012093C9
:102B70007501082F0E94DA0D83FF10C084E00E94C7
:102B8000840A882359F010927801109277011092EC
:102B90007601109275011092790116C00E94DA0D2B
:102BA00082FF05C088E00E94840A8111ECCF88E092
:102BB0000E94840A81110BC084E00E94840A811162
:102BC00006C0002309F435CF0E94620F32CFE09196
:102BD0007701F0917801EE0FFF1FE059FC4E8591CF
:102BE0009491E0917501F0917601EE0FFF1FE80FCF
:102BF000F91FE590F49061E371E081E995E00E94AE
:102C00000D0F609177017091780190E080E04AE0CB
:102C10000E941C0F6DE371E081E995E00E940D0FA9
:102C2000B70190E080E04AE00E941C0F62E471E08E
:102C300081E995E00E940D0F64E471E081E995E07F
:102C40000E940D0FF0927801E0927701A0CFFB0176
:102C5000DC0105900D920020E1F70895A1E21A2E03
:102C6000AA1BBB1BFD010DC0AA1FBB1FEE1FFF1F30
:102C7000A217B307E407F50720F0A21BB30BE40B80
:102C8000F50B661F771F881F991F1A9469F76095C7
:102C90007095809590959B01AC01BD01CF01089581
:102CA000AA1BBB1B51E107C0AA1FBB1FA617B70772
:102CB00010F0A61BB70B881F991F5A95A9F780958E
:102CC0009095BC01CD010895EE0FFF1F0590F49182
:102CD000E02D099481E090E0F8940C946F16F8943C
:022CE000FFCF24
:102CE200FFFFFFFF00E100000000000000C1808143
:102CF20000000000000000590DD40C7A0D6F0DC0C9
:102D02000D7E0D9C0D00000000F40DA70C080F07AE
:102D12000F676F696E672066726F6D200020746F97
:082D220020002E000D0A000044
:00000001FF
